{
  "contractName": "Game",
  "abi": [
    {
      "constant": true,
      "inputs": [
        {
          "name": "",
          "type": "address"
        }
      ],
      "name": "balances",
      "outputs": [
        {
          "name": "",
          "type": "uint256"
        }
      ],
      "payable": false,
      "stateMutability": "view",
      "type": "function"
    },
    {
      "constant": true,
      "inputs": [],
      "name": "wager",
      "outputs": [
        {
          "name": "",
          "type": "uint256"
        }
      ],
      "payable": false,
      "stateMutability": "view",
      "type": "function"
    },
    {
      "inputs": [],
      "payable": false,
      "stateMutability": "nonpayable",
      "type": "constructor"
    },
    {
      "constant": true,
      "inputs": [],
      "name": "isNewGame",
      "outputs": [
        {
          "name": "",
          "type": "bool"
        }
      ],
      "payable": false,
      "stateMutability": "view",
      "type": "function"
    },
    {
      "constant": true,
      "inputs": [],
      "name": "getCurrentPlayer",
      "outputs": [
        {
          "name": "",
          "type": "address"
        }
      ],
      "payable": false,
      "stateMutability": "view",
      "type": "function"
    },
    {
      "constant": true,
      "inputs": [],
      "name": "getCurrentWager",
      "outputs": [
        {
          "name": "",
          "type": "uint256"
        }
      ],
      "payable": false,
      "stateMutability": "view",
      "type": "function"
    },
    {
      "constant": false,
      "inputs": [
        {
          "name": "_move",
          "type": "uint8"
        }
      ],
      "name": "play",
      "outputs": [],
      "payable": true,
      "stateMutability": "payable",
      "type": "function"
    },
    {
      "constant": false,
      "inputs": [],
      "name": "withdraw",
      "outputs": [],
      "payable": false,
      "stateMutability": "nonpayable",
      "type": "function"
    }
  ],
  "bytecode": "0x608060405234801561001057600080fd5b5060006001600060038110151561002357fe5b01600060038110151561003257fe5b602091828204019190066101000a81548160ff021916908360ff160217905550600180600060038110151561006357fe5b01600160038110151561007257fe5b602091828204019190066101000a81548160ff021916908360ff1602179055506002600160006003811015156100a457fe5b0160026003811015156100b357fe5b602091828204019190066101000a81548160ff021916908360ff16021790555060026001806003811015156100e457fe5b0160006003811015156100f357fe5b602091828204019190066101000a81548160ff021916908360ff160217905550600060018060038110151561012457fe5b01600160038110151561013357fe5b602091828204019190066101000a81548160ff021916908360ff160217905550600180600160038110151561016457fe5b01600260038110151561017357fe5b602091828204019190066101000a81548160ff021916908360ff16021790555060018060026003811015156101a457fe5b0160006003811015156101b357fe5b602091828204019190066101000a81548160ff021916908360ff1602179055506002600160026003811015156101e557fe5b0160016003811015156101f457fe5b602091828204019190066101000a81548160ff021916908360ff16021790555060006001600260038110151561022657fe5b01600260038110151561023557fe5b602091828204019190066101000a81548160ff021916908360ff160217905550610814806102646000396000f300608060405260043610610083576000357c0100000000000000000000000000000000000000000000000000000000900463ffffffff16806327e235e3146100885780633ccfd60b146100df578063476e6172146100f657806353a04b051461014d578063667d5d22146101705780638942d7aa1461019b578063cdf7a159146101c6575b600080fd5b34801561009457600080fd5b506100c9600480360381019080803573ffffffffffffffffffffffffffffffffffffffff1690602001909291905050506101f5565b6040518082815260200191505060405180910390f35b3480156100eb57600080fd5b506100f461020d565b005b34801561010257600080fd5b5061010b61032a565b604051808273ffffffffffffffffffffffffffffffffffffffff1673ffffffffffffffffffffffffffffffffffffffff16815260200191505060405180910390f35b61016e600480360381019080803560ff169060200190929190505050610354565b005b34801561017c57600080fd5b50610185610796565b6040518082815260200191505060405180910390f35b3480156101a757600080fd5b506101b061079c565b6040518082815260200191505060405180910390f35b3480156101d257600080fd5b506101db6107a6565b604051808215151515815260200191505060405180910390f35b60006020528060005260406000206000915090505481565b6000806000803373ffffffffffffffffffffffffffffffffffffffff1673ffffffffffffffffffffffffffffffffffffffff1681526020019081526020016000205411151561025b57600080fd5b6000803373ffffffffffffffffffffffffffffffffffffffff1673ffffffffffffffffffffffffffffffffffffffff16815260200190815260200160002054905060008060003373ffffffffffffffffffffffffffffffffffffffff1673ffffffffffffffffffffffffffffffffffffffff168152602001908152602001600020819055503373ffffffffffffffffffffffffffffffffffffffff166108fc829081150290604051600060405180830381858888f19350505050158015610326573d6000803e3d6000fd5b5050565b6000600460009054906101000a900473ffffffffffffffffffffffffffffffffffffffff16905090565b6000600460009054906101000a900473ffffffffffffffffffffffffffffffffffffffff1673ffffffffffffffffffffffffffffffffffffffff16141561046d5780600660006101000a81548160ff021916908360ff16021790555033600460006101000a81548173ffffffffffffffffffffffffffffffffffffffff021916908373ffffffffffffffffffffffffffffffffffffffff16021790555034600581905550600554600080600460009054906101000a900473ffffffffffffffffffffffffffffffffffffffff1673ffffffffffffffffffffffffffffffffffffffff1673ffffffffffffffffffffffffffffffffffffffff16815260200190815260200160002060008282540192505081905550610793565b600460009054906101000a900473ffffffffffffffffffffffffffffffffffffffff1673ffffffffffffffffffffffffffffffffffffffff163373ffffffffffffffffffffffffffffffffffffffff16141515156104ca57600080fd5b600554341415156104da57600080fd5b6005546000803373ffffffffffffffffffffffffffffffffffffffff1673ffffffffffffffffffffffffffffffffffffffff1681526020019081526020016000206000828254019250508190555060026001600660009054906101000a900460ff1660ff1660038110151561054b57fe5b018260ff1660038110151561055c57fe5b602091828204019190069054906101000a900460ff1660ff16141561063e57600554600080600460009054906101000a900473ffffffffffffffffffffffffffffffffffffffff1673ffffffffffffffffffffffffffffffffffffffff1673ffffffffffffffffffffffffffffffffffffffff168152602001908152602001600020600082825401925050819055506005546000803373ffffffffffffffffffffffffffffffffffffffff1673ffffffffffffffffffffffffffffffffffffffff16815260200190815260200160002060008282540392505081905550610750565b600180600660009054906101000a900460ff1660ff1660038110151561066057fe5b018260ff1660038110151561067157fe5b602091828204019190069054906101000a900460ff1660ff16141561074f57600554600080600460009054906101000a900473ffffffffffffffffffffffffffffffffffffffff1673ffffffffffffffffffffffffffffffffffffffff1673ffffffffffffffffffffffffffffffffffffffff168152602001908152602001600020600082825403925050819055506005546000803373ffffffffffffffffffffffffffffffffffffffff1673ffffffffffffffffffffffffffffffffffffffff168152602001908152602001600020600082825401925050819055505b5b6000600460006101000a81548173ffffffffffffffffffffffffffffffffffffffff021916908373ffffffffffffffffffffffffffffffffffffffff1602179055505b50565b60055481565b6000600554905090565b600080600460009054906101000a900473ffffffffffffffffffffffffffffffffffffffff1673ffffffffffffffffffffffffffffffffffffffff16149050905600a165627a7a72305820965acd0a57f7bc351d32c7111cdfc2eff0050df7c0e4c4ad4710be1d0ec03c340029",
  "source": "pragma solidity ^0.4.24;\n\ncontract Game{\n\n    mapping (address => uint) public balances;\n\n    uint8[3][3] evaluate;\n\n    address player;\n    uint public wager;\n    uint8 move;\n\n\n    constructor (){\n\n        evaluate[0][0] = 0;\n        evaluate[0][1] = 1;\n        evaluate[0][2] = 2;\n        evaluate[1][0] = 2;\n        evaluate[1][1] = 0;\n        evaluate[1][2] = 1;\n        evaluate[2][0] = 1;\n        evaluate[2][1] = 2;\n        evaluate[2][2] = 0;\n        \n    }\n\n    function isNewGame() public view returns(bool){\n        return (player==0);\n    }\n\n    function getCurrentPlayer() public view returns(address){\n        return player;\n    }\n\n    function getCurrentWager() public view returns(uint){\n        return wager;\n    }\n\n    function play(uint8 _move) public payable{\n\n        if(player == 0){\n\n            move = _move;\n            player = msg.sender;\n            wager = msg.value;\n            balances[player] += wager;\n            return;\n        }\n\n        require(msg.sender != player);\n        require(msg.value == wager);\n\n        balances[msg.sender] += wager;\n\n        if(evaluate[move][_move] == 2){\n         \n            balances[player] += wager;\n            balances[msg.sender] -= wager;\n        }\n        else if(evaluate[move][_move] == 1){\n         \n            balances[player] -= wager;\n            balances[msg.sender] += wager;\n        }\n\n        player = 0;\n    }\n\n    function withdraw() public {\n\n        require(balances[msg.sender] > 0);\n        uint amount = balances[msg.sender];\n        balances[msg.sender] = 0;\n        msg.sender.transfer(amount);\n    }\n}",
  "sourcePath": "/home/ankush/dapps/sol/rockPaperScissors/contracts/Game.sol",
  "compiler": {
    "name": "solc",
    "version": "0.4.24+commit.e67f0147.Emscripten.clang"
  },
  "schemaVersion": "2.0.1",
  "updatedAt": "2018-11-14T18:23:14.325Z"
}